{
  "contractName": "Counter",
  "abi": [
    {
      "inputs": [],
      "name": "count",
      "outputs": [
        {
          "internalType": "uint256",
          "name": "",
          "type": "uint256"
        }
      ],
      "stateMutability": "view",
      "type": "function"
    },
    {
      "inputs": [],
      "name": "get",
      "outputs": [
        {
          "internalType": "uint256",
          "name": "",
          "type": "uint256"
        }
      ],
      "stateMutability": "view",
      "type": "function"
    },
    {
      "inputs": [],
      "name": "inc",
      "outputs": [],
      "stateMutability": "nonpayable",
      "type": "function"
    },
    {
      "inputs": [],
      "name": "dec",
      "outputs": [],
      "stateMutability": "nonpayable",
      "type": "function"
    }
  ],
  "bytecode": "0x608060405234801561001057600080fd5b506101ee806100206000396000f3fe608060405234801561001057600080fd5b506004361061004c5760003560e01c806306661abd14610051578063371303c01461006f5780636d4ce63c14610079578063b3bcfa8214610097575b600080fd5b6100596100a1565b60405161006691906100fb565b60405180910390f35b6100776100a7565b005b6100816100c0565b60405161008e91906100fb565b60405180910390f35b61009f6100c9565b005b60005481565b6000808154809291906100b990610145565b9190505550565b60008054905090565b6000808154809291906100db9061018e565b9190505550565b6000819050919050565b6100f5816100e2565b82525050565b600060208201905061011060008301846100ec565b92915050565b7f4e487b7100000000000000000000000000000000000000000000000000000000600052601160045260246000fd5b6000610150826100e2565b91507fffffffffffffffffffffffffffffffffffffffffffffffffffffffffffffffff82141561018357610182610116565b5b600182019050919050565b6000610199826100e2565b915060008214156101ad576101ac610116565b5b60018203905091905056fea26469706673582212209fb127591c9b14a9dd06f938c25afe1275c365f9e4805dcae294f5cb8f5d2fed64736f6c63430008090033",
  "immutableReferences": {},
  "source": "// SPDX-License-Identifier: MIT\npragma solidity ^0.8.3;\n\ncontract Counter {\n    uint public count;\n\n    function get() public view returns (uint) {\n        return count;\n    }\n\n    function inc() public {\n        count++;\n    }\n\n    function dec() public {\n        count--;\n    }\n}\n",
  "sourcePath": "/home/marc/Documents/Learning-solidity/contracts/Counter.sol",
  "compiler": {
    "name": "solc",
    "version": "0.8.9+commit.e5eed63a.Emscripten.clang"
  },
  "schemaVersion": "3.4.3",
  "updatedAt": "2021-11-05T11:42:07.755Z",
  "devdoc": {
    "kind": "dev",
    "methods": {},
    "version": 1
  },
  "userdoc": {
    "kind": "user",
    "methods": {},
    "version": 1
  }
}