{
  "contractName": "Variables",
  "abi": [
    {
      "inputs": [],
      "name": "num",
      "outputs": [
        {
          "internalType": "uint256",
          "name": "",
          "type": "uint256"
        }
      ],
      "stateMutability": "view",
      "type": "function"
    },
    {
      "inputs": [],
      "name": "text",
      "outputs": [
        {
          "internalType": "string",
          "name": "",
          "type": "string"
        }
      ],
      "stateMutability": "view",
      "type": "function"
    },
    {
      "inputs": [],
      "name": "doSomething",
      "outputs": [],
      "stateMutability": "nonpayable",
      "type": "function"
    }
  ],
  "bytecode": "0x60806040526040518060400160405280600581526020017f48656c6c6f0000000000000000000000000000000000000000000000000000008152506000908051906020019061004f929190610067565b50607b60015534801561006157600080fd5b5061016b565b82805461007390610139565b90600052602060002090601f01602090048101928261009557600085556100dc565b82601f106100ae57805160ff19168380011785556100dc565b828001600101855582156100dc579182015b828111156100db5782518255916020019190600101906100c0565b5b5090506100e991906100ed565b5090565b5b808211156101065760008160009055506001016100ee565b5090565b7f4e487b7100000000000000000000000000000000000000000000000000000000600052602260045260246000fd5b6000600282049050600182168061015157607f821691505b602082108114156101655761016461010a565b5b50919050565b6102bc8061017a6000396000f3fe608060405234801561001057600080fd5b50600436106100415760003560e01c80631f1bd692146100465780634e70b1dc146100645780638269267914610082575b600080fd5b61004e61008c565b60405161005b91906101cf565b60405180910390f35b61006c61011a565b604051610079919061020a565b60405180910390f35b61008a610120565b005b6000805461009990610254565b80601f01602080910402602001604051908101604052809291908181526020018280546100c590610254565b80156101125780601f106100e757610100808354040283529160200191610112565b820191906000526020600020905b8154815290600101906020018083116100f557829003601f168201915b505050505081565b60015481565b60006101c8905060004290506000339050505050565b600081519050919050565b600082825260208201905092915050565b60005b83811015610170578082015181840152602081019050610155565b8381111561017f576000848401525b50505050565b6000601f19601f8301169050919050565b60006101a182610136565b6101ab8185610141565b93506101bb818560208601610152565b6101c481610185565b840191505092915050565b600060208201905081810360008301526101e98184610196565b905092915050565b6000819050919050565b610204816101f1565b82525050565b600060208201905061021f60008301846101fb565b92915050565b7f4e487b7100000000000000000000000000000000000000000000000000000000600052602260045260246000fd5b6000600282049050600182168061026c57607f821691505b602082108114156102805761027f610225565b5b5091905056fea2646970667358221220f9e8f036dc1155baa408d2743b349b1ab5b2f0352a3b17cb15e5732fae49c1e764736f6c63430008090033",
  "immutableReferences": {},
  "source": "// SPDX-License-Identifier: MIT\n\npragma solidity ^0.8.3;\n\ncontract Variables {\n    // State variables are stored on the blockchain.\n    string public text = \"Hello\";\n    uint public num = 123;\n\n    function doSomething() public {\n        // Local varilables are not stored on the blockchain;\n        uint i = 456;\n        // Here are some global variables\n        uint timestamp = block.timestamp; // Current block timestamp\n        address sender = msg.sender; // address of the caller\n    } \n}",
  "sourcePath": "/home/marc/Documents/Learning-solidity/contracts/Variables.sol",
  "compiler": {
    "name": "solc",
    "version": "0.8.9+commit.e5eed63a.Emscripten.clang"
  },
  "schemaVersion": "3.4.3",
  "updatedAt": "2021-11-05T14:38:38.587Z",
  "devdoc": {
    "kind": "dev",
    "methods": {},
    "version": 1
  },
  "userdoc": {
    "kind": "user",
    "methods": {},
    "version": 1
  }
}